:020000040000FA
:0400000080EF00F09D
:020004000000FA
:0400080010EF00F005
:0400180030EF00F0D5
:10002000F0A21100800ED66EF2940350F10F0F0F64
:1000300015E30000000000000000000000000000C8
:10004000000000000050080805E1006A01C0EEFF52
:10005000016A032A014681B40180002AF09211004E
:10006000F2B401D01100036601D001D00280800EED
:06007000D66EF2941100AF
:100100000F01F29ED190740ED36E000ED26E400E8F
:100110009B6E5B0E00EE00F0EF6AE96EEF6AE80698
:10012000FCE1016A006A026A036A00EE10F010EE58
:1001300020F0090EE66E000EE66E030EE66E10EE7F
:1001400040F0000EE66E800EE66E800EE66E800ECB
:10015000E66E800EE66E800EE66E000EE66E000E17
:10016000E66E000EE66E000EE66E0F0E386F000EA5
:10017000396F180E3A6FFF0E926E070E936EFF0ED8
:10018000946E090EC26E000EC16E3E0EC06E9E9C35
:100190009D9C9F9C06EC04F03E8080BE3E9080BCFF
:1001A0003E9082B03E9080BC49D080BE47D080B89F
:1001B00045D0000EA96EFF0EA86E00EC06F0010EF1
:1001C000A96E000EA86E00EC06F0020EA96EFF0EDE
:1001D000A86E00EC06F0030EA96E000EA86E00ECEF
:1001E00006F0040EA96EFF0EA86E00EC06F0050ED8
:1001F000A96E000EA86E00EC06F0060EA96EFF0EAA
:10020000A86E00EC06F0070EA96E000EA86E00ECBA
:1002100006F0080EA96E000EA86E00EC06F0090E9E
:10022000A96E180EA86E00EC06F00A0EA96E000E5C
:10023000A86E00EC06F03EA000EC18F0090EA96EC6
:1002400080EC06F0A8CF0EF00A0EA96E80EC06F046
:10025000A8CF0FF0080EA96E80EC06F0000E0D6E10
:10026000A8B00D80000EA96E21EE00F042EC02F065
:10027000080EA96E80EC06F0000E0D6EA8B20D807F
:10028000020EA96E22EE00F042EC02F0080EA96EFA
:1002900080EC06F0000E0D6EA8B40D80040EA96E61
:1002A00023EE00F042EC02F0080EA96E80EC06F09E
:1002B000000E0D6EA8B60D80060EA96E24EE00F09D
:1002C00042EC02F0938649974999FF0EBB6E0F0EE0
:1002D000666E6768A192070EBA6E9396400E526FD3
:1002E0007D907E907F0E516F236A246A256A266A6C
:1002F000276A286A296A2A6A2B6A2C6A386A396A44
:100300003A6A3B6A3C6A3D6A6184F19E3EA000EC19
:1003100010F0F092F198F088F08ED08E480ED56EE5
:10032000800ED66E000ED76EF294F28AF194D58EBE
:10033000F28CF28EC282D1803EA000EF20F080BE0F
:10034000040080BC040082B2040002B081EC02F020
:10035000AFEC01F0C2A2A4EC03F09FEF01F07EA08D
:1003600012007E90272A282A292A2A2A2B2A2C2A78
:10037000382A392A3A2A3B2A3C2A3D2A000E82A2F0
:10038000E88880ACE88680AEE88480AAE88280A80D
:10039000E880251A25C02DF0256E000E82AAE88C73
:1003A00082A4E88A82A0E88882ACE88682AEE884EB
:1003B00081A0E88281A2E880261A26C02EF0266E4F
:1003C000248E2DB0276A2DB2286A2DB4296A2DB645
:1003D0002A6A2DB82C6A2EB03D6A2EB23C6A2EB421
:1003E0003B6A2EB63A6A2EB82B6A2EBA386A2EBCF1
:1003F000396A27A604D02706239080A8238028A640
:1004000004D02806239280AA238229A604D0290694
:10041000239480AE23842AA604D02A06239680AC97
:1004200023862CA604D02C06239882A223883DA6DE
:1004300004D03D06249081A224803CA604D03C0632
:10044000249281A024823BA604D03B06249482AE51
:1004500024843AA604D03A06249682AC24862BA69D
:1004600004D02B06249882A0248838A604D038060D
:10047000249A82A4248A39A604D03906249C82AA0C
:10048000248C1200F29EA69EA69CA680A8CFE8FF10
:10049000A92AA69EA69CA680A855016E000EE8CFAC
:1004A0000CF00DB0FF08E8CFD9FF0CC0E8FFA8554D
:1004B000D8A0000EE8CF0AF001C0E8FF0B6A80EC7C
:1004C00005F00BC0E8FFD8B0FF0EDF6EE8AE800885
:1004D0007F0B06E00E5CDFCFE8FFD8A8800EDF6E52
:1004E0000CC0E8FFE82ADBE3016A1200F29E0290EA
:1004F00010EE10F003C005F000EC05F000EE10F077
:10050000FFD1F29E029000EE10F0000EEF5D02E1CE
:10051000C7EF02F0400EEF5D02E124EF03F0410E61
:10052000EF5D02E1CEEF02F0420EEF5D02E1CEEFB1
:1005300002F01F0EEF5D02E144EF03F0200EEF5DCD
:1005400002E155EF03F0210EEF5D02E1D5EF02F07D
:10055000220EEF5D02E1E0EF02F0230EEF5D02E11B
:10056000E7EF02F0240EEF5D02E1F2EF02F0250E5C
:10057000EF5D02E1F9EF02F0300EEF5D02E106EF10
:1005800003F0310EEF5D02E115EF03F0B9D110EE8B
:1005900020F0030E056E00EC05F0B2D110EE40F035
:1005A0000A0E056E00EC05F0ABD1EECFE8FF090EA8
:1005B000A96EEECFA8FF00EC06F080EC04F0FF007F
:1005C00010EE0EF0010E056E00EC05F099D1EECFA5
:1005D000E8FF0A0EA96EEECFA8FF00EC06F080EC53
:1005E00004F0FF0010EE0FF0010E056E00EC05F0B8
:1005F00087D110EE30F0000EE8CFE7FF010E056E58
:1006000000EC05F080EC04F000EF08F010EE30F0A4
:10061000010EE8CFE6FF000EE8CFE6FF10EE30F067
:10062000020E056E00EC05F06BD110EE30F0010EFD
:10063000E8CFE6FF000EE8CFE6FF10EE30F0020E46
:10064000056E00EC05F05CD110EE30F0EE25EE25E5
:10065000EFA06768EFB00FC067FF23C0E6FF24C0BC
:10066000E6FF50C0E6FF51C0E6FF52C0E6FF53C0B0
:10067000E6FF55C0E6FF54C0E6FF10EE30F0080E6E
:10068000056E00EC05F03CD110EE38F0080EA96EB6
:1006900080EC06F0A8CFE5FFE806F9E710EE30F0B1
:1006A000090E056E00EC05F02BD1EECFE8FF000E31
:1006B000A96EEECFA8FF00EC06F0010EA96EEECFFA
:1006C000A8FF00EC06F0020EA96EEECFA8FF00EC2A
:1006D00006F0030EA96EEECFA8FF00EC06F0040EA4
:1006E000A96EEECFA8FF00EC06F0050EA96EEECFC6
:1006F000A8FF00EC06F0060EA96EEECFA8FF00ECF6
:1007000006F0070EA96EEECFA8FF00EC06F0080E6B
:10071000A96EEECFA8FF00EC06F080EC04F0FF001D
:10072000C45C04E2800FD8A0E86A1200800FD8B041
:10073000E8681200C45C04E2000FD8A0E86A120066
:10074000000FD8B0E8681200092A09C0E8FFE804E1
:100750000BE0E80418E0E80425E0E80432E0E804EF
:100760003FE0E80448E0120021EE00F056C0E8FF48
:1007700090EC03F0E8CFD9FFDFCF50F00D0EC26E42
:100780009E9CC282120022EE00F057C0E8FF90EC5F
:1007900003F0E8CFD9FFDFCF51F0010EC26E9E9C6F
:1007A000C282120023EE00F058C0E8FF90EC03F084
:1007B000E8CFD9FFDFCF52F0050EC26E9E9CC282F9
:1007C000120024EE00F059C0E8FF90EC03F0E8CFEF
:1007D000D9FFDFCF53F03D0EC26E9E9CC282120045
:1007E0005AC0E8FF9AEC03F0E8CF54F0410EC26E15
:1007F0009E9CC28212005BC0E8FF9AEC03F0E8CF37
:1008000055F0090EC26E9E9CC2821200090EC26E85
:10081000C282C2B2FED7C4CF56F00D0EC26EC282E3
:10082000C2B2FED7C4CF57F0010EC26EC282C2B2AE
:10083000FED7C4CF58F0050EC26EC282C2B2FED738
:10084000C4CF59F03D0EC26EC282C2B2FED7C4CF31
:100850005AF0410EC26EC282C2B2FED7C4CF5BF064
:02086000120084
:10090000F29E00EE10F09384F092016A006A026A8F
:10091000036A480ED56E800ED66EF294D58EF28E96
:020920001200C3
:100A0000F29E93848A94080E066E055036E0E6CF77
:100A100007F007360CE2000093940E0E086E0000FB
:100A20000806FDE1000000009384000019D09394B3
:100A300000000000000000000000000000000000B6
:100A400000000000000000000000000000000000A6
:100A500000009384090E086E00000806FDE1000006
:100A6000060609E000000000000000000000000091
:100A700000000000CED70506C6D700000000939402
:100A80000000000000000000000000000000000066
:100A90000000000000000000000000000000000056
:100AA00000009384F092016A006A026A036AF29479
:080AB000800ED66EF28E1200DA
:100B0000000FD880D8B41200A1EC05F099EC05F0E4
:100B100099EC05F099EC05F099EC05F099EC05F0ED
:100B200099EC05F099EC05F099EC05F00B36D894AA
:100B300012000B360A36D8A0A1EF05F00A5ED88065
:0E0B400012000A5ED8B012000A26D8901200E9
:100C0000A69EA69CA684F29E550EA76EAA0EA76E5F
:0C0C1000A682A1A8FED7A198A69412000D
:0C0D0000A96EF29EA69EA69CA680120082
:10100000D1909DEC08F002B007EC08F0FCD7F29EFE
:10101000029000EE10F0100EEF5D0CE0110EEF5D8F
:1010200015E0120EEF5D45E0130EEF5D02E19AEF61
:1010300008F083D021EE00F010EE30F0000EE8CF83
:10104000E7FF010E056E00EC05F077D010EE30F0F2
:1010500000EE11F0000EEE24EE24EE24EE24EE2439
:10106000EE24EE24EE24E81CE828EF5C08E0010EF4
:10107000E8CFE7FF010E056E00EC05F05ED000EE54
:1010800011F0EECFDEFFEECFDEFFEECFDEFFEECFD4
:10109000DEFFEECFDEFFEECFDEFFEECFDEFFEECFE8
:1010A000DEFF000EE8CFE7FF010E056E00EC05F055
:1010B00044D010EE30F000EE11F0EFCFE8FF9F0FBC
:1010C000410F08E2020EE8CFE7FF010E056E00ECCB
:1010D00005F033D000EE11F0000EE8CFF8FFEECFB0
:1010E000F7FFEFCFF6FFA68EA69CA684A688550E26
:1010F000A76EAA0EA76EA682A6B2FED70A0021EEA0
:1011000000F0400EDECFF5FF0F00E82EFBD7A68ED5
:10111000A69CA684550EA76EAA0EA76EA682A6B29E
:10112000FED7A694000EE8CFE7FF010E056E00EC97
:1011300005F003D000EC18F0FF00F29E00EE10F076
:101140009384F092016A006A026A036A480ED56EBF
:0C115000800ED66EF294D58EF28E120046
:102000007F0E516F6184F19E10EE20F0090EE66E96
:0A201000000EE66E000EE66E1200F0
:023000001200BC
:1040000080BE040080BC040082B2040002B010EC48
:1040100020F0B8EC21F0C2A256EC21F000EF20F025
:10402000F29E029000EE10F0000EEF5D02E15DEFF7
:1040300020F0FF0EEF5D02E15DEF20F0400EEF5D3E
:1040400002E1C6EF20F0410EEF5D02E166EF20F0E5
:10405000420EEF5D02E166EF20F01F0EEF5D02E120
:10406000F4EF20F0200EEF5D02E107EF21F0210ECA
:10407000EF5D02E16FEF20F0220EEF5D02E17AEFDB
:1040800020F0230EEF5D02E183EF20F0240EEF5DC0
:1040900002E18EEF20F0250EEF5D02E197EF20F0B8
:1040A000300EEF5D02E1A4EF20F0310EEF5D02E192
:1040B000B5EF20F080EC04F0120010EE20F0030EBB
:1040C000056E00EC05F080EC04F0120010EE40F0FC
:1040D0000A0E056E00EC05F080EC04F01200EECF45
:1040E000E8FF090EA96EEECFA8FF00EC06F080EC09
:1040F00004F0FF0010EE0EF0010E056E00EC05F06E
:1041000080EC04F01200EECFE8FF0A0EA96EEECFAD
:10411000A8FF00EC06F080EC04F0FF0010EE0FF0BA
:10412000010E056E00EC05F080EC04F0120010EEBC
:1041300030F0000EE8CFE7FF010E056E00EC05F051
:1041400080EC04F000EF08F010EE30F0010EE8CF44
:10415000E6FF010EE8CFE6FF10EE30F0020E056E2E
:1041600000EC05F080EC04F0120010EE30F0010ECF
:10417000E8CFE6FF000EE8CFE6FF10EE30F0020ECB
:10418000056E00EC05F080EC04F0120010EE30F04B
:10419000EE25EECF3FF0EFA06768EFB00FC067FFEE
:1041A000000E82A2E88880ACE88680AEE88480AA0F
:1041B000E88280A8E88023C0E6FF24C0E6FF50C064
:1041C000E6FF51C0E6FF52C0E6FF53C0E6FF55C010
:1041D000E6FF54C0E6FF10EE30F0080E056E00EC6E
:1041E00005F080EC04F0120010EE38F0080EA96E15
:1041F00080EC06F0A8CFE5FFE806F9E710EE30F016
:10420000090E056E00EC05F080EC04F01200EECF14
:10421000E8FF000EA96EEECFA8FF00EC06F0010E3D
:10422000A96EEECFA8FF00EC06F0020EA96EEECF4D
:10423000A8FF00EC06F0030EA96EEECFA8FF00EC7D
:1042400006F0040EA96EEECFA8FF00EC06F0050EF6
:10425000A96EEECFA8FF00EC06F0060EA96EEECF19
:10426000A8FF00EC06F0070EA96EEECFA8FF00EC49
:1042700006F0080EA96EEECFA8FF00EC06F080EC69
:1042800004F0FF00C45C04E2800FD8A0E86A1200CA
:10429000800FD8B0E8681200C45C04E2000FD8A018
:1042A000E86A1200000FD8B0E8681200092A09C0B5
:1042B000E8FFE8040BE0E80418E0E80425E0E8047F
:1042C00032E0E8043FE0E80448E0120021EE00F0AC
:1042D00056C0E8FF42EC21F0E8CFD9FFDFCF50F025
:1042E0000D0EC26E9E9CC282120022EE00F057C0DC
:1042F000E8FF42EC21F0E8CFD9FFDFCF51F0010E0B
:10430000C26E9E9CC282120023EE00F058C0E8FFED
:1043100042EC21F0E8CFD9FFDFCF52F0050EC26E9C
:104320009E9CC282120024EE00F059C0E8FF42ECCD
:1043300021F0E8CFD9FFDFCF53F03D0EC26E9E9C37
:10434000C28212005AC0E8FF4CEC21F0E8CF54F0D2
:10435000410EC26E9E9CC28212005BC0E8FF4CEC14
:1043600021F0E8CF55F0090EC26E9E9CC282120069
:104370007EA012007E90272A282A292A2A2A2B2A60
:104380002C2A382A392A3A2A3B2A3C2A3D2A000E6E
:1043900082A2E88880ACE88680AEE88480AAE882C1
:1043A00080A8E880251A25C02DF0256E000E82AA6F
:1043B000E88C82A4E88A82A0E88882ACE88682AE93
:1043C000E88481A0E88281A2E880261A26C02EF027
:1043D000266E248E2DB0276A2DB2286A2DB4296A44
:1043E0002DB62A6A2DB82C6A2EB03D6A2EB23C6AD0
:1043F0002EB43B6A2EB63A6A2EB82B6A2EBA386AA9
:104400002EBC396A27A604D02706239080A82380D3
:1044100028A604D02806239280AA238229A604D0A5
:104420002906239480AE23842AA604D02A06239644
:1044300080AC23862CA604D02C06239882A2238845
:104440003DA604D03D06249081A224803CA604D041
:104450003C06249281A024823BA604D03B062494EF
:1044600082AE24843AA604D03A06249682AC2486EE
:104470002BA604D02B06249882A0248838A604D02A
:104480003806249A82A4248A39A604D03906249CAA
:0644900082AA248C120038
:020000040030CA
:0100010018E6
:010002001FDE
:010003002AD2
:01000500BE3C
:010006008574
:0100080000F7
:010009008076
:01000A000EE7
:01000B008074
:01000C0000F3
:01000D0000F2
:0200000400F00A
:0C000000FF00FF00FF00FF0000180000E0
:00000001FF
